{
  "address": "0x5FbDB2315678afecb367f032d93F642f64180aa3",
  "abi": [
    {
      "inputs": [],
      "stateMutability": "nonpayable",
      "type": "constructor"
    },
    {
      "anonymous": false,
      "inputs": [
        {
          "indexed": false,
          "internalType": "uint256",
          "name": "count",
          "type": "uint256"
        }
      ],
      "name": "CountIncremented",
      "type": "event"
    },
    {
      "inputs": [],
      "name": "count",
      "outputs": [
        {
          "internalType": "uint256",
          "name": "",
          "type": "uint256"
        }
      ],
      "stateMutability": "view",
      "type": "function"
    },
    {
      "inputs": [],
      "name": "increment",
      "outputs": [],
      "stateMutability": "nonpayable",
      "type": "function"
    }
  ],
  "transactionHash": "0xb3b5316fa7ae19d69b9460d2f91e0a43d82f8e62180ea10c553d6dbe7da5221e",
  "args": [],
  "numDeployments": 1,
  "solcInputHash": "934a0a8f1e2bc6ebc62ae7a1570e017b",
  "bytecode": "0x608060405234801561001057600080fd5b506101ac806100206000396000f3fe608060405234801561001057600080fd5b50600436106100365760003560e01c806306661abd1461003b578063d09de08a14610059575b600080fd5b610043610063565b60405161005091906100d6565b60405180910390f35b610061610069565b005b60005481565b600160008082825461007b9190610120565b925050819055507f420680a649b45cbb7e97b24365d8ed81598dce543f2a2014d48fe328aa47e8bb6000546040516100b391906100d6565b60405180910390a1565b6000819050919050565b6100d0816100bd565b82525050565b60006020820190506100eb60008301846100c7565b92915050565b7f4e487b7100000000000000000000000000000000000000000000000000000000600052601160045260246000fd5b600061012b826100bd565b9150610136836100bd565b9250827fffffffffffffffffffffffffffffffffffffffffffffffffffffffffffffffff0382111561016b5761016a6100f1565b5b82820190509291505056fea26469706673582212202238c7ac2ca5d4f01f161469981e4865a80b0866a5c3cf433496e719dfaa35d664736f6c63430008090033",
  "devdoc": {
    "kind": "dev",
    "methods": {},
    "version": 1
  },
  "userdoc": {
    "kind": "user",
    "methods": {},
    "version": 1
  },
  "storageLayout": {
    "storage": [
      {
        "astId": 3,
        "contract": "contracts/Counter.sol:Counter",
        "label": "count",
        "offset": 0,
        "slot": "0",
        "type": "t_uint256"
      }
    ],
    "types": {
      "t_uint256": {
        "encoding": "inplace",
        "label": "uint256",
        "numberOfBytes": "32"
      }
    }
  }
}