{
  "address": "0x014492D58087F956e4264118D035cf31FEa32097",
  "abi": [
    {
      "inputs": [],
      "stateMutability": "nonpayable",
      "type": "constructor"
    },
    {
      "anonymous": false,
      "inputs": [
        {
          "indexed": false,
          "internalType": "uint256",
          "name": "count",
          "type": "uint256"
        }
      ],
      "name": "CountIncremented",
      "type": "event"
    },
    {
      "inputs": [],
      "name": "count",
      "outputs": [
        {
          "internalType": "uint256",
          "name": "",
          "type": "uint256"
        }
      ],
      "stateMutability": "view",
      "type": "function"
    },
    {
      "inputs": [],
      "name": "increment",
      "outputs": [],
      "stateMutability": "nonpayable",
      "type": "function"
    }
  ],
  "transactionHash": "0x0aeec9c2c7a2bb99862faabcdb80d9f56a0bd5006841b0ec3ede01d79a2f54f0",
  "args": [],
  "numDeployments": 3,
  "solcInputHash": "f1cb52d5184766533954301d0164827e",
  "bytecode": "0x608060405234801561001057600080fd5b506101ac806100206000396000f3fe608060405234801561001057600080fd5b50600436106100365760003560e01c806306661abd1461003b578063d09de08a14610059575b600080fd5b610043610063565b60405161005091906100d6565b60405180910390f35b610061610069565b005b60005481565b600360008082825461007b9190610120565b925050819055507f420680a649b45cbb7e97b24365d8ed81598dce543f2a2014d48fe328aa47e8bb6000546040516100b391906100d6565b60405180910390a1565b6000819050919050565b6100d0816100bd565b82525050565b60006020820190506100eb60008301846100c7565b92915050565b7f4e487b7100000000000000000000000000000000000000000000000000000000600052601160045260246000fd5b600061012b826100bd565b9150610136836100bd565b9250827fffffffffffffffffffffffffffffffffffffffffffffffffffffffffffffffff0382111561016b5761016a6100f1565b5b82820190509291505056fea264697066735822122015207c4ca4c9ee67c9835e739cfe74eecc45f6661676e5c098d7582f2324da0164736f6c63430008090033",
  "devdoc": {
    "kind": "dev",
    "methods": {},
    "version": 1
  },
  "userdoc": {
    "kind": "user",
    "methods": {},
    "version": 1
  },
  "storageLayout": {
    "storage": [
      {
        "astId": 3,
        "contract": "contracts/Counter.sol:Counter",
        "label": "count",
        "offset": 0,
        "slot": "0",
        "type": "t_uint256"
      }
    ],
    "types": {
      "t_uint256": {
        "encoding": "inplace",
        "label": "uint256",
        "numberOfBytes": "32"
      }
    }
  }
}